2015-08-31 17:48:20,890 FIXT.1.1:DUMMY_INC->ANOTHER_INC: 8=FIXT.1.1|9=140|35=W|34=2|49=DUMMY_INC|52=20150831-17:48:20.890|56=ANOTHER_INC|22=99|48=.AQUA-W|262=golden_path_test|268=1|269=3|270=640754|272=20150831|273=17:48:20.882|10=070|
2015-08-26 23:10:17,748 FIX.4.2:DUMMY_INC->ANOTHER_INC: 8=FIX.4.2|9=240|35=8|34=6|49=DUMMY_INC|52=20150826-23:10:17.744|56=ANOTHER_INC|57=Firm_B|1=Inst_B|6=0|11=best_buy|14=5|17=ITRZ1201508261_24|20=0|22=8|31=1010|32=5|37=ITRZ1201508261_12|38=5|39=2|40=2|41=best_buy|44=1011|54=1|55=ITRZ1|60=20150826-23:10:15.547|150=2|151=0|10=227|
2015-08-31 20:48:26,536 FIXT.1.1:DUMMY_INC->ANOTHER_INC: 8=FIXT.1.1|9=189|35=W|34=5|49=DUMMY_INC|52=20150831-20:48:26.535|56=ANOTHER_INC|22=99|48=ITRZ21|262=req_A|268=2|269=0|270=0.01005|271=10|272=20150831|273=20:48:26.514|269=1|270=0.0101|271=2|272=20150831|273=20:48:26.514|10=123|
2015-08-26 23:08:38,096 FIX.4.2:DUMMY_INC->ANOTHER_INC: 8=FIX.4.2|9=184|35=F|34=2|49=ANOTHER_INC|50=DefaultSenderSubID|52=20150826-23:08:38.094|56=DUMMY_INC|1=DefaultAccount|11=clordid_of_cancel|41=part_fill_test_buy|54=1|55=ITER|60=20250407-13:14:15|167=FUT|200=201512|10=147|
2015-08-26 23:03:21,150 FIX.4.2:DUMMY_INC->ANOTHER_INC: 8=FIX.4.2|9=173|35=D|34=2|49=ANOTHER_INC|50=6833|52=20150826-23:03:21.146|56=DUMMY_INC|1=kkozel|11=15051230|21=1|22=8|38=2|40=2|44=22710|54=1|55=DUMMY_INC|59=1|60=20250407-13:14:15|100=XDMI|167=FUT|200=201506|10=138|
2015-08-26 23:03:21,150 FIX.4.2:DUMMY_INC->ANOTHER_INC: 8=FIX.4.2|9=173|35=D|34=2|49=ANOTHER_INC|50=6833|52=20150826-23:03:21.146|56=DUMMY_INC|1=kkozel|11=151012569|21=1|22=8|38=2|40=2|44=22710|54=1|55=DUMMY_INC|59=1|60=20250407-13:14:15|100=XDMI|167=FUT|200=201506|10=138|
2015-08-26 23:10:17,748 FIX.4.2:DUMMY_INC->ANOTHER_INC: 8=FIX.4.2|9=240|35=8|34=6|49=DUMMY_INC|52=20150826-23:10:17.744|56=ANOTHER_INC|57=Firm_B|1=Inst_B|6=0|11=151012569|17=ITRZ1201508261_24|20=0|22=8|31=1010|32=5|37=ITRZ1201508261_12|38=5|39=2|40=2|41=best_buy|44=1011|54=1|55=ITRZ1|60=20150826-23:10:15.547|150=2|151=0|10=227|
2015-08-26 23:08:38,096 FIX.4.2:DUMMY_INC->ANOTHER_INC: 8=FIX.4.2|9=184|35=F|34=2|49=ANOTHER_INC|50=DefaultSenderSubID|52=20150826-23:08:38.094|56=DUMMY_INC|1=DefaultAccount|11=clordid_of_cancel|41=151012569|54=1|55=ITER|60=20250407-13:14:15|167=FUT|200=201512|10=147|
2015-08-31 17:48:20,890 FIXT.1.1:DUMMY_INC->ANOTHER_INC: 8=FIXT.1.1|9=140|35=W|34=2|49=DUMMY_INC|52=20150831-17:48:20.890|56=ANOTHER_INC|22=99|48=.AQUA-W|262=golden_path_test|268=1|269=3|270=640754|272=20150831|273=17:48:20.882|10=070|
2015-08-31 20:48:26,536 FIXT.1.1:DUMMY_INC->ANOTHER_INC: 8=FIXT.1.1|9=189|35=W|34=5|49=DUMMY_INC|52=20150831-20:48:26.535|56=ANOTHER_INC|22=99|48=ITRZ21|262=req_A|268=2|269=0|270=0.01005|271=10|272=20150831|273=20:48:26.514|269=1|270=0.0101|271=2|272=20150831|273=20:48:26.514|10=123|
2015-08-31 20:48:26,536 FIXT.1.1:DUMMY_INC->ANOTHER_INC: 8=FIX.4.0|9=81|35=D|34=3|49garbled=TW|52=<TIME>|56=ISLD|11=ID|21=3|40=1|54=1|55=INTC|10=0|
2015-08-31 20:48:26,536 FIXT.1.1:DUMMY_INC->ANOTHER_INC: 8=invalid_stuff
