8=FIX.4.1|9=49|35=0|34=2|49=BANZAI|52=20121105-23:24:37|56=EXEC|10=228|
8=FIX.4.1|9=49|35=0|34=2|49=EXEC|52=20121105-23:24:37|56=BANZAI|10=228|
