8=FIXT.1.1|9=189|35=W|34=5|49=DUMMY_INC|52=20150831-20:48:26.535|56=ANOTHER_INC|22=99|48=ITRZ21|262=req_A|268=2|269=0|270=0.01005|271=10|272=20150831|273=20:48:26.514|269=1|270=0.0101|271=2|272=20150831|273=20:48:26.514|10=123|
8=FIXT.1.1|9=140|35=W|34=2|49=DUMMY_INC|52=20150831-17:48:20.890|56=ANOTHER_INC|22=99|48=.AQUA-W|262=golden_path_test|268=1|269=3|270=640754|272=20150831|273=17:48:20.882|10=070|
