8=FIX.4.1|9=103|35=D|34=3|49=BANZAI|52=20121105-23:24:42|56=EXEC|11=1352157882577|21=1|38=10000|40=1|54=1|55=MSFT|59=0|10=062|
8=FIX.4.1|9=103|35=D|34=4|49=BANZAI|52=20121105-23:24:55|56=EXEC|11=1352157895032|21=1|38=10000|40=1|54=1|55=ORCL|59=0|10=047|
8=FIX.4.1|9=108|35=D|34=5|49=BANZAI|52=20121105-23:25:12|56=EXEC|11=1352157912357|21=1|38=10000|40=2|44=10|54=1|55=SPY|59=0|10=003|
8=FIX.4.2|9=173|35=D|34=2|49=ANOTHER_INC|50=6833|52=20150826-23:03:21.146|56=DUMMY_INC|1=kkozel|11=15051230|21=1|22=8|38=2|40=2|44=22710|54=1|55=DUMMY_INC|59=1|60=20250407-13:14:15|100=XDMI|167=FUT|200=201506|10=138|
