8=FIX.4.1|9=104|35=F|34=6|49=BANZAI|52=20121105-23:25:16|56=EXEC|11=1352157916437|38=10000|41=1352157912357|54=1|55=SPY|10=198|
8=FIX.4.1|9=104|35=F|34=7|49=BANZAI|52=20121105-23:25:25|56=EXEC|11=1352157925309|38=10000|41=1352157912357|54=1|55=SPY|10=197|
8=FIX.4.2|9=184|35=F|34=2|49=ANOTHER_INC|50=DefaultSenderSubID|52=20150826-23:08:38094|56=DUMMY_INC|1=DefaultAccount|11=clordid_of_cancel|41=part_fill_test_buy|54=1|55=ITER|60=20250407-13:14:15|167=FUT|200=201512|10=147|
